S00F00006A6F686E736F6E2E7372656316
S21408000068CD07207D340800793408007934080064
S21408001079340800793408007934080000000000B4
S214080020000000000000000000000000C1080800F2
S21408003079340800000000003D0908007909080026
S21408004079340800793408007934080079340800CF
S21408005079340800793408007934080079340800BF
S214080060793408007934080000000000E9320800F6
S214080070FD32080011330800253308000000000090
S21408008000000000452B0800793408007934080081
S214080090793408007934080079340800793408007F
S2140800A0793408000000000079340800F9010800D7
S2140800B0793408007934080079340800793408005F
S2140800C0793408007934080079340800793408004F
S2140800D0793408007934080079340800793408003F
S2140800E0793408007934080079340800793408002F
S2140800F07934080010B5054C237833B9044B13B18E
S2140801000448AFF300800123237010BD100A0720AF
S21408011000000000A4790800084B10B51BB1084879
S2140801200849AFF300800848036803B910BD074BB9
S214080130002BFBD0BDE81040184700BF00000000A9
S214080140A4790800140A0720A47908000000000013
S21408015010B51C20084B9847084C20460121002261
S214080160074B984720460121064B98472046012111
S214080170054B9847002010BD2534080000000840AD
S2140801809D070800B9070800C907080010B51148F8
S2140801904FF020514FF480720F4B984720B10F480C
S2140801A002210F4B984710BD0C4C204602210D4BE0
S2140801B0984740080C4BA3FB002398080B4BA3FB5F
S2140801C000235B090A4A136020460221094B984718
S2140801D010BD00BF00140E40C92F080000000840DC
S2140801E0C1070800D1070800310CC33009CB3D8D84
S2140801F0300A0720C907080030B583B00D20214D06
S214080200A847430903F5001303F207735B0200F0DF
S2140802101F00012404FA00F21A631B4800211B4B36
S21408022098470190019B0920A847430903F5001346
S21408023003F207735B0200F01F0004FA00F21A6369
S2140802403620134B98470920A847430903F500139F
S21408025003F207735B0200F01F0004FA00F25A6309
S2140802600D20A847430903F5001303F207735B0242
S21408027000F01F0004FA00F25A63064B1C6003B035
S21408028030BD00BF0D2B080000000840E907080035
S214080290010007202C0A0720F0B583B01B20244D48
S2140802A0A847244C204600214FF48042224FB847E6
S2140802B020460021214A224B9847224E4FF00063E1
S2140802C033602046002110221F4B98472046002105
S2140802D01E4B98471D20A847204602210022B847F3
S2140802E0204602211A4B984720460221194B984768
S2140802F00E20A84704F5C22404F5806420464FF46F
S21408030080710122144B9847144B009320460E2107
S2140803104FF480724023124DA84720464FF4807150
S214080320104B98474FF48043336003B0F0BD00BFCE
S21408033025340800000008409D07080040164000C5
S214080340D907080000E100E0E1070800C107080037
S214080350B9070800C9070800213008008D01080001
S2140803607D320800AD30080010B504461720144B3F
S2140803709847144A536843F44053536080232360D5
S214080380236B0823236020232360236843F0040399
S2140803902360636843F480136360D4F8203143F421
S2140803A0807343F00103C4F820314FF0FF33A36293
S2140803B0236943F4C33343F0A003236110BD00BF91
S2140803C02534080000100E40002343604FF4002335
S2140803D04360074A136A13F0040FFBD041630223F5
S2140803E00360034A136A13F0010FFBD008467047F0
S2140803F0000009400A4659B103780129C4BF41786C
S21408040041EA0323022A05DD807840EA0320704784
S21408041000207047184670472DE9F041CC688E6872
S214080420002C43D00546002068604B681B0203F486
S214080430407343F480520B7C1B0403F4FE031343FF
S2140804406B60E86008464968274B9847E860012CC7
S21408045004D103232B604FF0010E33E001232B60F9
S2140804604FF0000E2EE00A462B6A13F4807F20D148
S214080470511E0AB3012C06D1BEF1000F2FD1C5F8C4
S2140804800080E6462BE013F0020F05D02B6B337086
S214080490013C01363A4600E00A46002CE4D12B6AB5
S2140804A013F0010FFBD02B6ABDE8F0810120BDE8F0
S2140804B0F0810520BDE8F0810920BDE8F08105201F
S2140804C0BDE8F0812B6A13F48070F8D147F22F51FB
S2140804D047F230574FF002084FF0010CCAE713F006
S2140804E0020FC0D0D2E700BFF503080082B0064A64
S2140804F0537A127A0020520062F30F005B0063F30F
S2140805001F4002B0704700BF340A072082B0064A70
S214080510537812780020520062F30F005B0063F3F2
S2140805201F4002B0704700BF340A072082B0064A50
S214080530537912790020520062F30F005B0063F3D0
S2140805401F4002B0704700BF340A072082B0064A30
S214080550D37892780020520062F30F005B0063F3B2
S2140805601F4002B0704700BF340A072008B502488B
S2140805700249034B984708BD000009403801072088
S21408058019040800A8B92DE9F0410C469046002A3F
S2140805900ADD8F18084E094D306821462B689847A3
S2140805A00134BC42F8D101E04FF000084046BDE8EF
S2140805B0F0814FF0FF30704760AD072004AD07208C
S2140805C0F0B48CB007460E4601AC114D0FCD0FC4E3
S2140805D00FCD0FC495E8070084E8070001AA00209D
S2140805E052F8043BB6FBF3F3B3FBF7F3B3F5807F9F
S2140805F005D901300B28F3D14FF6FF7005E00A281D
S21408060094BF43EA00204FF6FF700CB0F0BC70476A
S2140806102077080070B506460C46086840B1896819
S2140806200E4B984705464FF6FF73984201D10EE0E9
S2140806300025606840B1A168084B98474FF6FF73DD
S214080640984207D045EA00453560002070BD4FF651
S214080650FF7070BD4FF6FF7070BD00BFC105080083
S21408066070B40B688A8A4C6804F00F0422430C891D
S21408067022438C7A42EA44228C7D42EA0442CC7DAC
S21408068042EA44420C7E42EA844200EB4314C4F831
S2140806900022CA68C4F804220A69C4F80C228A7DB3
S2140806A03AB18C8B4A8B42EA044200EB4314C4F8F6
S2140806B01822846C4FF001129A40D24302EA0405CD
S2140806C0CC7F04FA03F68C7F9C4044EA06442C430D
S2140806D08464446C144091F8212002FA03F591F8DA
S2140806E020209A4042EA05422243426401229A4068
S2140806F091F822401CB1046A1443046203E0046AB9
S21408070024EA0204046291F82440012C846E0CBF8B
S21408071014439443846691F82540012C846E0CBFDC
S21408072044EA024224EA02428266032B0BD8C46ECD
S214080730DD00FF22AA4024EA020291F82330AB40EB
S2140807401343C3660CE0043B026FDB00FF249C40A7
S21408075022EA040491F8232002FA03F323430367EA
S214080760002070BC704700BF10B40C680B69934239
S21408077006D3CA6000EB4410C0F80822002001E047
S2140807804FF6FF705DF8044B704700BF01238B409F
S2140807904360704701238B408360704710B489011B
S2140807A04318022444504FF0FF319962196A5A6080
S2140807B05DF8044B704700BFC0F8C410704700BF10
S2140807C08901052343507047890102234350704727
S2140807D000EB81110869704700EB8111CA61704708
S2140807E000EB81114A62704700EB8111086A704776
S2140807F000F1080343604FF0FF328260C360036174
S21408080000230360704700BF00230361704700BFE2
S21408081043685A684A6042688A605A6891605960B4
S21408082041600861036801330360704710B40C68C0
S214080830B4F1FF3F01D103690AE000F10803C2687A
S2140808401268944204D35B685A6812689442FAD2D3
S2140808505A684A6091608B60596008610368013382
S21408086003605DF8044B7047436882689A60836843
S21408087042685A6003695A68824204BF82685A60AE
S214080880002202611A68013A1A601868704700BFA9
S21408089003480068006880F3088862B600DF00BF77
S2140808A008ED00E04FF0807340F8043C40F8081C60
S2140808B0002340F80C3C40F8202C4038704700BF16
S2140808C0064B19680868B0E8F00F80F309884FF0FF
S2140808D0000080F311884EF00D0E704718AB072005
S2140808E04FF08052014B1A60704700BF04ED00E0DD
S2140808F0EFF311804FF0A00181F3118870470020B4
S21408090008B5034B9847034A13680133136008BDBC
S214080910F10808004C01072080F31188704700BFD3
S21408092008B5044A1368013B136013B90020024B4C
S214080930984708BD4C01072019090800EFF30980FD
S2140809400C4B1A6820E9F00F10602DE908404FF0AC
S214080950A00080F3118800F0D7FE4FF0000080F367
S2140809601188BDE8084019680868B0E8F00F80F3F9
S2140809700988704718AB072008B54FF08052054B1A
S2140809801A60054B9847054B98470020044B984734
S21408099008BD00BF04ED00E0F10808008913080050
S2140809A019090800034A044B1A600722043B1A6018
S2140809B0704700BF1F48010014E000E010B5094B5F
S2140809C01A6842F470021A601A6842F070421A6096
S2140809D0054B98470024054B1C60054B9847204656
S2140809E010BD00BF20ED00E0A50908004C01072057
S2140809F091080800134A00E01A4613688342FBD39E
S214080A0030B4114654681519854203D16868044401
S214080A1054601046426884189C420CD10A4B1B68E6
S214080A209C4206D063681A4442600B681B680360E1
S214080A3002E0046000E00360814218BF086030BC32
S214080A40704700BF44AA072040AA072038B50446C6
S214080A50294B9847294B1B689BB9294A294B136091
S214080A600021516049F6F0729818244D286049F61E
S214080A70F475595199505A601860234A1368103B08
S214080A801360002C2ED004F1100212F0070F1CBFC2
S214080A9022F007020832511E49F6FE73994223D8FF
S214080AA017490C6801E021461C4663689A4202D939
S214080AB02368002BF7D1114B1B689C4216D00D6893
S214080AC0103523680B6063689B1A202B04D9A0187E
S214080AD0436062600D4B98470B4A136861685B1A5F
S214080AE0136004E0002502E0002500E00025084B1E
S214080AF09847284638BD00BF5913080040AA072063
S214080B0044AA0720400A072050010720F5090800D4
S214080B10A914080080B110B50446084B9847084A3F
S214080B20116854F80C3C0B441360A4F11000054BF4
S214080B309847054B984710BD704700BF59130800E3
S214080B4050010720F5090800A914080010B5044646
S214080B50036C3BB903681BBB4068134B98470023DC
S214080B6063601DE06AB980681A46104B9847A26809
S214080B70236C1344A3606268934211D32368A3606E
S214080B800EE0C0681A46094B9847236C5B42E26839
S214080B901A44E26021688A4202D262681344E3601B
S214080BA0A36B0133A36310BD391A0800D1470800A8
S214080BB038B50346006858B11A6CDC681444DC6023
S214080BC05D68AC4228BFD8600846D968014B98478C
S214080BD038BD00BFD1470800F8B504461E4B9847F5
S214080BE0A36C002B13DD636A1BB910E0636A23B994
S214080BF00DE004F12406194D194F3046A84700B1F8
S214080C00B847A36C013BA364A36C002BEEDC4FF043
S214080C10FF33A364134B98470F4B9847636C002B1E
S214080C2013DD23691BB910E0236923B90DE004F12D
S214080C3010060A4D0A4F3046A84700B1B847636CFD
S214080C40013B6364636C002BEEDC4FF0FF33636498
S214080C50044B9847F8BD00BF010908005118080062
S214080C60811908002109080038B518B9174B9847A4
S214080C7000BFFDE70D460446154B98472268216CD1
S214080C80E36B03FB01F3D01860600020A063A2604A
S214080C905B1A1344E3604FF0FF336364A36455B9EB
S214080CA023697BB104F110000A4B9847012809D143
S214080CB0094B984706E004F11000084DA84704F1D0
S214080CC02400A847064B9847012038BDF1080800BD
S214080CD00109080051180800E1080800F107080093
S214080CE021090800F8B5A0B10D461746064650205B
S214080CF00E4B9847044660B105FB06F001300B4BD7
S214080D009847206040B92046094B984701E000BF45
S214080D10FDE7084B9847FAE7E66325642046012175
S214080D20054B984784F84D702046F8BD4D0A0800D4
S214080D30150B0800F1080800690C08002DE9F04FAB
S214080D4085B00192009318B9384B984700BFFDE765
S214080D508A46044629B9036C2BB1344B984700BF22
S214080D60FDE7002700E00027314EDFF8ECB0314DF4
S214080D70B047A26BE36B9A4212D220465146009ABD
S214080D802D4B9847636A3BB104F124002B4B9847D8
S214080D90012801D12A4B9847264B9847012042E064
S214080DA0019B1BB9234B984700203CE017B902A8C3
S214080DB0D8470127A847234B9847B047636CB3F139
S214080DC0FF3F04BF00236364A36CB3F1FF3F04BF77
S214080DD00023A364A84702A801A91B4B9847E0B9BB
S214080DE0B047D4F83890D4F83C80A847C1450ED10F
S214080DF004F110000199154B98472046144B984764
S214080E00144B98470028B3D10D4B9847B0E72046B7
S214080E100F4B98470F4B9847AAE720460C4B984726
S214080E200C4B9847002005B0BDE8F08FF108080085
S214080E3001090800210908004D0B08005118080090
S214080E40E108080059130800FD180800AD17080047
S214080E50D90B0800A9140800D51808002DE9F04198
S214080E6018B91E4B984700BFFDE70E46154698462C
S214080E70044629B9036C1BB1184B984700BFFDE719
S214080E80164B98470746A26BE36B9A4218D2204641
S214080E9031464246124B9847A36CB3F1FF3F0AD13E
S214080EA0636A7BB104F124000E4B984760B16DB1BC
S214080EB001242C600BE0A36C0133A364012406E034
S214080EC0002404E0012402E0012400E0012438465E
S214080ED0054B98472046BDE8F08100BFF10808009A
S214080EE04D0B080051180800190908002DE9F04FA5
S214080EF085B0019218B9464B984700BFFDE789466A
S214080F009A46044629B9036C2BB1414B984700BF53
S214080F10FDE7002700E000273E4EDFF828B13E4DEB
S214080F20B047A36B43B3E568204649463B4B984712
S214080F30BAF1000F12D1A36B013BA363236813B960
S214080F40374B98476060236993B104F11000354B1E
S214080F50984701280CD1344B984709E0E560636A46
S214080F6033B104F124002F4B984708B12E4B98470D
S214080F70294B9847012048E0019B1BB9264B984708
S214080F80002042E017B902A8D8470127A847274BF0
S214080F909847B047636CB3F1FF3F04BF0023636410
S214080FA0A36CB3F1FF3F04BF0023A364A84702A8BD
S214080FB001A91F4B984710BBB047D4F83880A847FC
S214080FC0B8F1000F15D1236823B9B0476068194BEC
S214080FD09847A84704F124000199174B98472046DC
S214080FE0164B9847164B9847002899D10E4B9847AA
S214080FF096E72046114B9847114B984790E72046AE
S2140810000E4B98470E4B9847002005B0BDE8F08F6A
S214081010F10808000109080021090800B10B0800BA
S2140810208D19080051180800E1080800591308002F
S214081030FD180800B9190800AD170800D90B0800F4
S214081040A9140800D518080038B504460D460D4BF7
S2140810509847636CB3F1FF3F04BF00236364A36C37
S214081060B3F1FF3F04BF0023A364074B9847A36B65
S21408107023B904F124002946044B98472046044B1C
S214081080984738BD01090800210908000D1808000E
S214081090D90B080010B504460E4B1B6858600E4B5B
S2140810A01B68984207D20D4B18680A4B196804311A
S2140810B00B4B984710BD0B4B1868064B1968043144
S2140810C0074B9847084B1B689C423CBF064B1C6066
S2140810D010BD00BF18AB072034AB072038AB07207D
S2140810E02D08080064AA0720540107202DE9F04FB0
S2140810F083B00C9FDDF834800E9E019018B9624BC1
S214081100984700BFFDE7894615469B46042F03D936
S2140811105D4B984700BFFDE74C205C4B984704465C
S214081120002800F0AB80002E40F0A580A800574BA2
S2140811309847206318B92046554B98479EE0A52146
S214081140AA00544B984705F18045013D236B03EBF5
S214081150850323F0070504F1340049460A224E4B5E
S2140811609847002384F83D303E46042F28BF0426BF
S214081170E662A66404F104094846DFF86CA1D04785
S21408118004F11800D0472461C6F10506A66164621A
S214081190284601995A46414B9847206010F0070F99
S2140811A003D0394B984700BFFDE7B8F1000F01D0D0
S2140811B0C8F800403A4B98473A4A13680133136018
S2140811C0394B1B680BBB384B1C601368012B26D1A8
S2140811D0364D05F16408364E2846B0471435454561
S2140811E0FAD1DFF808814046314DA847314E3046DF
S2140811F0A8473148A8473148A8473148A847314B3F
S214081200C3F80080304B1E6009E0304B1B6833B9CA
S214081210254B1B68DB6A9F4224BF234B1C60E06A91
S2140812202B4B1B68984284BF294B1860294A1368C1
S214081230236401331360284B1B68984284BF264BEF
S214081240186000EB8000194B03EB80004946234BDF
S2140812509847234B98471D4B1B6843B1124B1B6896
S214081260DB6A9F4205D91F4B9847012008E00120FA
S21408127006E0012004E00663304660E74FF0FF30E2
S21408128003B0BDE8F08F00BFF10808004D0A08005B
S214081290150B0800BD480800BD4A0800A508080048
S2140812A00109080040AB072018AB07209CAA0720B6
S2140812B0F107080084AA07201CAB072000AB07200C
S2140812C050AA072064AA072038AB072068AA072078
S2140812D048AB07203CAB072098AA0720110808004F
S2140812E021090800E10808000908080070AA072074
S2140812F010B584B0002300930193029303930E481D
S2140813000E4982220E4CA04701280ED10D4B984755
S21408131001280AD10C4B984701220C4B1A60002270
S2140813200B4B1A600B4B984704E018B9064B9847C6
S21408133000BFFDE704B010BD8516080060770800FA
S214081340ED100800311B0800F108080068AA0720FD
S21408135034AB0720BD090800024A1368013313603E
S214081360704700BF30AB072010B5044B9847044BB6
S2140813701C68044B9847204610BD00BF01090800AA
S21408138034AB0720210908002DE9F0413A4B1B68C9
S214081390002B6BD1394B1A6801321A601B6803BBE5
S2140813A0374B1B681B681BB1364B984700BFFDE7D9
S2140813B0334B1968344A10681860116033490A6854
S2140813C001320A601B681B6823B94FF0FF32304BA6
S2140813D01A6006E02A4B1B68DB68DB685A682C4BE9
S2140813E01A60264B1A682A4B1B689A4242D3244B2B
S2140813F01B681B686BB1224B1B68DB68DC6863687C
S2140814001E4A1268934213D8224E234FDFF8948060
S21408141012E04FF0FF321E4B1A60BDE8F081184B01
S2140814201B68DB68DC686368144A1268934203D951
S214081430174A1360BDE8F081251D2846B047A36A01
S21408144013B104F11800B047E06A3B68984288BFB9
S214081450386000EB800008EB800029460F4B984761
S214081460074B1B681B68002BD9D1D2E70C4A1368B8
S21408147001331360BDE8F08130AB072034AB07209A
S21408148064AA0720F108080038AB072014AB072029
S214081490540107206908080098AA072011080800C0
S2140814A04CAA07209CAA07202DE9F843304B1B6856
S2140814B01BB9304B984700BFFDE72F4B98472C4B7E
S2140814C01A68013A1A601B68002B49D12B4B1B6817
S2140814D003BB002447E0D8F80C30DC6804F1180099
S2140814E0B84704F104094846B847E06A33689842A2
S2140814F088BF306000EB8000214B03EB8000494634
S214081500204B9847204B1B68E26ADB6A9A4228BF42
S214081510012504E00025DFF890801C4F1C4ED8F803
S2140815200030002BD7D11B4B1B6863B1194B1B68C7
S2140815307BB1194D174CA8472368013B23602368E5
S214081540002BF8D105E0012D03D0144B1B68012BA6
S21408155008D10022114B1A60114B9847012402E06B
S214081560002400E000240F4B98472046BDE8F88387
S21408157030AB0720F10808000109080040AB072037
S2140815809CAA07201108080018AB0720690808005D
S21408159098AA07204CAA07208913080044AB0720FE
S2140815A0E1080800210908001CAB072038B518B95F
S2140815B01A4B984700BFFDE70C46054619B9174B66
S2140815C0984700BFFDE7164B98472B681C44154AFA
S2140815D01268934207D9A3421CD9124B1B682C6089
S2140815E09C420FD906E0A34212D80E4B1B689C42B9
S2140815F00ED80FE00C4B186804300C4B9847204662
S2140816000B4B98470B4B984730B90B4B984738BD50
S2140816102C60EFE72C60F5E738BD00BFF10808003E
S2140816205913080034AB072018AB072069080800D0
S21408163095100800A9140800E108080010B580B144
S2140816400446094B9847094B1B681C44084B186806
S2140816500430084B98472046074B9847074B98474F
S21408166008B9074B984710BD5913080034AB072034
S21408167018AB07206908080095100800A914080088
S214081680E108080080B5154D154EDFF87480154F33
S21408169019E0C0473468B847ACB1134B9847F368AD
S2140816A0DC68201D114B9847114A1368013B1360EC
S2140816B02B68013B2B600F4B9847206BDFF8449054
S2140816C0C8472046C8472B68002BE2D10A4B1B6840
S2140816D0012BF8D9094B9847D7E700BF6CAA072013
S2140816E000AB0720A91408000109080069080800CB
S2140816F040AB0720210908009CAA0720E10808003B
S21408170059130800150B080010B5224B1B686BB957
S214081710214B1B6803EB83039B00204AD358CBB9A5
S2140817201D4B1B6843B11C4A1C4909E001221C4B8F
S2140817301A6010BD13681BB91A4B984700BFFDE71F
S2140817401368013B1360136803EB830351F82330D7
S214081750002BEFD0104B1B68104A9900C81802EBF4
S214081760800044686468446002460832944206D1A1
S214081770606803EB8301094A02EB8102506003EBC1
S2140817808303064A02EB83035B68DA68064B1A6033
S21408179010BD00BF30AB072098AA07209CAA0720D8
S2140817A044AB0720F108080018AB072038B518B96D
S2140817B00E4B984700BFFDE70C460D4D29681831BB
S2140817C00C4B9847286804300B4B9847B4F1FF3FFA
S2140817D005D1296809480431094B984738BD094B93
S2140817E018682044084B984738BD00BFF108080021
S2140817F018AB07202D0808006908080050AA07201B
S2140818001108080034AB07209510080038B518B939
S214081810094B984700BFFDE70D46084C216818316C
S214081820074B984720680430064B9847064B1868BD
S2140818302844064B984738BDF108080018AB07201F
S214081840110808006908080034AB0720951008003E
S21408185038B5C368DC681CB9164B984700BFFDE767
S21408186004F118052846144B9847144B1B689BB977
S214081870251D2846104B9847E06A114B1B6898426E
S21408188084BF0F4B186000EB80000E4B03EB800004
S21408189029460D4B984703E00C4829460A4B9847BB
S2140818A00B4B1B68E06ADB6A984234BF00200120B5
S2140818B038BD00BFF10808006908080030AB0720EB
S2140818C098AA07209CAA0720110808001CAB072026
S2140818D018AB072008B518B9054B984700BFFDE7B1
S2140818E0044A12680260044A1268426008BD00BFD3
S2140818F0F108080014AB072034AB072038B518B930
S214081900194B984700BFFDE70D46044619B9164B14
S214081910984700BFFDE7154B98472B68B3F1FF3F84
S21408192018D0134A12682168914204D0114A1268E6
S2140819306168914210D90F4A11686068091A8B428B
S2140819400CD91268121A9B1A2B6020460A4B984725
S214081950002404E0002402E0012400E00124074BF0
S2140819609847204638BD00BFF1080800010908005E
S21408197014AB072034AB0720D51808002109080047
S2140819800122014B1A60704744AB0720014B1868C8
S214081990704700BF18AB0720054B1B6833B1054BD3
S2140819A01B68002B0CBF01200220704700207047E0
S2140819B068AA072030AB0720002831D038B5C36A9C
S2140819C018490968C96A8B4229D216490968C96A3A
S2140819D0C1F10501816103EB8303134901EB83031E
S2140819E04169994217D10546041D20460F4B984772
S2140819F00C4B1B68D86AE8620D4B1B68984284BF7C
S214081A000B4B186000EB8000074B03EB8000214669
S214081A10084B984738BD034B1B68DB6AC36238BD62
S214081A20704700BF18AB07209CAA07206908080063
S214081A3098AA072011080800E8B138B5C16A826C70
S214081A40914217D00446051D28460B4B9847A06CB4
S214081A50E062C0F10503A361084B1B68984284BF87
S214081A60064B186000EB8000054B03EB8000294608
S214081A70044B984738BD70476908080098AA07209D
S214081A809CAA07201108080010B50446416020618A
S214081A9091420AD8D21A83699A4211D20A4B186818
S214081AA0211D0A4B9847002010BD9A4201D2994240
S214081AB008D2074B1868211D044B9847002010BD14
S214081AC0012010BD012010BD80AB07202D0808009E
S214081AD04CAB072070B50D4B98470D4B1B688BB960
S214081AE00C4D28460C4EB0470C4C2046B0470C4BC5
S214081AF01D600C4B1C6005200C2100220A4B9847E1
S214081B00034B1860094B984770BD00BF01090800D1
S214081B107CAB072050AB0720F107080064AB072012
S214081B204CAB072080AB0720E50C0800210908000D
S214081B3010B584B00B4B98470B4B1B6863B1042356
S214081B4000930023019302930393084808494FF42F
S214081B508272084CA04718B9074B984700BFFDE7A4
S214081B6004B010BDD51A08007CAB0720851C0800F9
S214081B706C770800ED100800F108080030B585B04D
S214081B800F4C2568C5B10191029203906BB90D4BB5
S214081B90984701280A4B186801A907BF089A002326
S214081BA000221346084CA04707E0284601A91A4613
S214081BB00023064CA04700E0002005B030BD00BF5B
S214081BC07CAB0720991908003D0D08005D0E08003B
S214081BD02DE9F04782B08146224B98478046224B33
S214081BE01B68984234D224E0DA68D2F800A0DB6892
S214081BF0DC68251D2846B847636A20469847E36987
S214081C00012B18D1A3695344534506D96360246150
S214081C1030682946154B98470DE000230093204668
S214081C2019465246124CA04728B9124B984700BF8F
S214081C30FDE7114E114F33681A68002AD4D1104AAE
S214081C4010680D49086013600123C9F8003002E0E7
S214081C500023C9F80030044BC3F80080404602B0A1
S214081C60BDE8F0876913080078AB07202D08080040
S214081C707D1B0800F10808004CAB0720690808001F
S214081C8080AB07202DE9F04387B04D4DDFF8608123
S214081C904C4B1B681A68002A00F08780DB681E68B1
S214081CA0494B984703A8494B98470746039B002B80
S214081CB030D1864224D8464B9847424B1B68DB688F
S214081CC0DC68201DC047E369012B14D1A1692046B2
S214081CD031443A4633463F4FB84701280BD10023D4
S214081CE000932046194632463B4EB04718B93B4B40
S214081CF0984700BFFDE7636A204698470CE0002631
S214081D002868F11B364B9847314B984720B9354B16
S214081D10984701E02E4B984702A82C4B9847074651
S214081D20314EDFF8B09038E0059C1CB163690BB102
S214081D30201DC047039B022B1FD0032B2AD0002B45
S214081D402BD1049BA169204619443A46C847012866
S214081D5023D1636A20469847E369012B1DD1A269FF
S214081D600023009320461946049C22441A4CA04798
S214081D7098B91A4B984700BFFDE70499A16119B9AD
S214081D80164B984700BFFDE7204639443A463B467F
S214081D90C84702E02046154B9847286803A9002242
S214081DA01346B0470028BFD172E7074B984703A8E9
S214081DB0064B98470746039B002BA0D0AAE700BF10
S214081DC07CAB07204CAB072059130800D11B080032
S214081DD0A9140800891A08007D1B0800F1080800E5
S214081DE049100800E1080800ED0E0800150B080069
S214081DF06908080038B558204FF080510B4B9847B3
S214081E000B4907240C6000230B818B720B224A6057
S214081E1041F64C520A61CB60064D2846064B984759
S214081E2028462146054B984738BD00BFB9300800FC
S214081E3030AD072000400940610608008D070800FD
S214081E4038B557204FF080510B4B98470B49002365
S214081E500B818B720B224A6041F64C520A61CB60AA
S214081E6006240C60064D2846064B98472846214609
S214081E70054B984738BD00BFB930080008AD0720A5
S214081E8000400940610608008D07080030B585B097
S214081E9024200D4B98470D4C204607210C4DA8478B
S214081EA020460621A8470B4B0193002302930A4BB2
S214081EB00393204601A9094B9847094B9847094BB5
S214081EC0984705B030BD00BF2534080000400940DB
S214081ED09507080040420F0000BD010515060800DA
S214081EE0F51D0800411E080008B5B0F5487F06D362
S214081EF040F698030246984228BF1A4601E04FF477
S214081F00487202480249034B984708BD00400940FA
S214081F1030AD07206907080008B5B0F5487F06D336
S214081F2040F698030246984228BF1A4601E04FF446
S214081F30487202480249034B984708BD00400940CA
S214081F4008AD072069070800034BDB6C034A1368D3
S214081F5001331360704700BF000E0E4084AB0720A5
S214081F60034BDB6C034A136801331360704700BFEA
S214081F7000140E4088AB0720014B1868704700BF56
S214081F8084AB0720014B1868704700BF88AB072052
S214081F900022014B1A60704784AB07200022014BD1
S214081FA01A60704788AB07202DE9F04182B00B20F5
S214081FB01C4CA0470E20A0471B4D28464FF4004156
S214081FC001221A4EB0471A4C204601210A46B0474D
S214081FD04FF400472F6201262662C5F88470C4F8BD
S214081FE08460144B009328460B213A467023DFF88A
S214081FF05480C047284639460F4DA8470F4B0093D4
S21408200020460E2132467023C04720463146A84750
S2140820100B4B4FF400621A604FF480421A6002B00D
S214082020BDE8F08125340800000E0E402130080077
S21408203000140E40491F0800AD300800611F080054
S21408204000E100E07D32080010B503A3D3E90023C1
S214082050034CA04710BD00BFECC9631ADCA54C4072
S214082060894108002DE9F84F88461D46154C801A08
S214082070A04706460F46144BC3E90067C5EB0800A1
S214082080A04704460D46114BC3E90045DFF848A0B3
S214082090DFF848B03046394632463B46D047064613
S2140820A00F462046294622462B46D04702460B4670
S2140820B030463946D847064B9847064B984780B26D
S2140820C0BDE8F88FBD40080090AB072098AB072006
S2140820D0853B08000D47080089410800253E080092
S2140820E02DE9F84390469946514EDDE90823B04756
S2140820F004460D464F4BC3E9004540464946DDE9D0
S2140821000A23B04706460F464B4BC3E900672046EE
S214082110294600220023DFF830C1E04740B13046A8
S214082120394600220023DFF820C1E047002862D1A4
S2140821302046294600220023DFF810C1E04748B1B0
S2140821403046394622462B463C4CA0473C4B9847DF
S214082150BDE8F8832046294600220023DFF8F0C0B1
S214082160E047B0B13046394600220023DFF8E4C025
S214082170E047B0B13046394622462B462F4CA0479A
S2140821802F4B984724A3D3E900232E4CA047BDE83D
S214082190F8832046294600220023DFF8B4C0E0472B
S2140821A0B0B13046394600220023DFF8A4C0E04725
S2140821B070B13046394622462B46204CA047204B65
S2140821C0984715A3D3E90023194CA047BDE8F88320
S2140821D020462946002200231B4CA04778B13046EB
S2140821E0394600220023194CA04768B10CA1D1E952
S2140821F00001BDE8F88300200021BDE8F8830AA1A5
S214082200D1E90001BDE8F88307A1D1E90001BDE8DE
S214082210F88300BFAFF300801E264454FB21094014
S2140822201E264454FB21F93F1E264454FB21F9BFC1
S214082230213E080090AB072098AB0720DD43080036
S21408224049380800253E080059460800A9460800EF
S2140822506D4608009546080010B5074B984704A336
S214082260D3E90023054CA047054B984700B210BD9C
S214082270BC7493180456F63FBD400800DD430800BA
S214082280BD46080070B506460D46164B98470446E8
S214082290154B9847201A81B2144B1980144B1B789B
S2140822A003FB01F189B2134B198040F2DB539D42C0
S2140822B008D89E4206D80E440F4B1E80691A0F4B4C
S2140822C0198005E0761A0C4B1E8029440B4B1980A2
S2140822D0094B18880A4B9847084B1888094B9847A3
S2140822E070BD00BF791F0800851F0800A6AB072031
S2140822F058010720A2AB0720A4AB0720A0AB0720F5
S214082300191F0800E91E080008B5012806D14FF471
S214082310AF6040F22761084B984708BDB0F1FF3F11
S21408232007BF40F227604FF4AF6140F2DC50014629
S214082330014B984708BD00BF8522080070B5054CBC
S21408234040F2DC56044D30463146A847013CFAD1E7
S21408235070BD00BF400D0300852208000000000085
S2140823602DE9F04F89B04FF0C8094FF00008CDF8B6
S2140823700480DFF874A14E4D4E4CD047079028686D
S21408238002A90A220123A0470028F8D04A4EDDE910
S2140823900401B04700B2494B984743A3D3E900234A
S2140823A0474FB847B04787B2BDF90800454B98472E
S2140823B0064617F4004F1DBF7F42BFB24FF0030B0F
S2140823C04FF0000B002803DA4642B6B20123019309
S2140823D03D4B98473FB236B23E44B04248DA3B4B94
S2140823E09847864244DD384B984787420ADD374B84
S2140823F09847874206DDBBF1000F03D10120344B16
S214082400984749E0304B984787420BDD2F4B984753
S214082410874207DDBBF1030F04D14FF0FF302C4B8A
S214082420984739E0B8F1000F01D12A4B9847019B2D
S21408243043B140F2535040F27151274B98474FF042
S214082440010829E01FFA89F1C1F5DB600130C1F502
S214082450E061013180B289B21F4B9847B9F1000F8D
S21408246018D009F1FF395FFA89F94FF0010813E02F
S214082470184B9847286802A90A220023A047174B3A
S2140824809847174B98474FF0C8094FF00008CDF803
S214082490048001E04FF0010807A80421114B984773
S2140824A06BE700BFAFF3008046B6F3FDD4780E4066
S2140824B058AD0720ED0E0800BD460800BD400800D0
S2140824C0DD43080059220800791F0800851F080008
S2140824D0092308003D23080085220800911F0800EC
S2140824E09D1F0800AD150800691308002DE9F04F78
S2140824F091B04348434B9847434B9847434B9847BC
S214082500434B1860434B9847434B18600520434B92
S2140825109847430903F5001303F207735B02DA6B67
S21408252000F01F0001238340134209D03C4B984714
S2140825303C4B18603C48334B98472F23069308E0DB
S2140825403A4B9847374B186039482E4B98472A23FA
S214082550069341F28830374B98472B4B98472B4BBE
S214082560984703462A4D28602E4C208861889AB2E0
S2140825701B0C314EB04700B200EBD070C0F34F09C9
S2140825802E4E2088B047CDE904016088B0478246C1
S2140825908B462888B047CDE900016888B047CDE962
S2140825A00201DDE9040152465B46254EB047254B3D
S2140825B0984706460F46ADF83090CDE90E67224B91
S2140825C018680CA90A220023DFF898C0E0472A6892
S2140825D01E4B1A601E4829886A880A4DA8471D4857
S2140825E021886288A847304639461B4B984701B26F
S2140825F01A48BDF93020A847DFF84CB0184FC9E094
S21408260074770800A94708006D050800ED0408005F
S214082610B4AB07200D050800ACAB07200D2B08004F
S2140826204D050800B0AB0720987708002D05080070
S214082630A87708003D160800652008009D40080099
S214082640E12008004920080058AD0720A8AB07205D
S214082650BC770800D4770800BD460800F477080061
S214082660ED0E08003D0D0800DBF800000CA902225C
S2140826700123B8470028F7D1984B9847984B9847B6
S2140826800246984D2860984891B2120C974EB0476B
S214082690974B984819885A88B047974B188859888E
S2140826A02A886B88954DA84700B200EBD070C0F317
S2140826B04F09C4EB60000928D8BF4FF00F09894EB0
S2140826C08F4D3088A847CDE904017088A847CDE922
S2140826D00801874C2088A847CDE900016088A847EC
S2140826E0CDE90201DDE90401DDE90823DFF850A29F
S2140826F0D047DFF85082C047CDE904017E4C2088D9
S214082700A847CDE908016088A847CDE90A013088BE
S214082710A847CDE900017088A847CDE90201DDE9A0
S2140827200801DDE90A23D047C047DDE90423754DD3
S214082730A847CDE90401744EB0470546734829B248
S2140827400FFA89F2DFF8A481C047714821886288A9
S214082750C04785EAE570A0EBE5706E4B9847002207
S2140827606D4B6E4CA04718B100220023CDE9042318
S214082770ADF83090DDE90423CDE90E23DBF8000040
S2140827800CA905220023664CA04718B1554B1A68B9
S214082790574B1A60BDF918400FFA89F31B1B0A2B12
S2140827A03FF762AF5F4D604C28680CA902220123F0
S2140827B0A0470028F8D15D484C4B98475C480C2148
S2140827C05C4B984742F228305B4B98473223ADF86B
S2140827D0303000220023CDE90E23524B18680CA98E
S2140827E0022200234E4CA0474E4D4F4C28680CA999
S2140827F002220123A0470028F8D141F288304E4B28
S2140828009847364B9847364B9847DFF8D880834624
S2140828104FEA104AC8F80000484D394C2888A047A7
S21408282006460F466888DFF8EC906438C847CDE956
S21408283004011FFA8BF0A047CDE900011FFA8AF0C1
S214082840A047CDE9020130463946DDE904233C4F6E
S214082850B8473C4EB047CDE90401B8F80000A04799
S214082860CDE90601B8F80200A047CDE90801DFF86F
S21408287080A0BAF80000A047CDE90001BAF8020027
S214082880A047CDE90201DDE90601DDE90823B847DE
S214082890B04706460F4669886439288889B2B8F86A
S2140828A00020B8F80230154CA04784B2DDE90401D0
S2140828B032463B46134EB04706460F46DFF848A05A
S2140828C0D047804611480FFA88F122B2DFF81CB0CC
S2140828D0D8471D4829886A8838E000BF6D05080073
S2140828E0ED040800B4AB0720BC770800A947080029
S2140828F0A8AB072014780800B0AB072065200800AE
S2140829009D400800213E0800BD4608002C780800B7
S21408291044780800BD4008000000F03F6D460800F7
S2140829203D0D080058AD0720ED0E08005878080041
S21408293000000940C90308003D160800ACAB072094
S214082940E12008004920080074780800D84788EA7B
S214082950E870A0EBE870C8470022564B564DA847CB
S21408296008B100260027ADF83040CDE90E67534B76
S21408297018680CA905220023514CA04718B1514BE2
S2140829801A68514B1A604D4D504C28680CA9022203
S2140829900123A0470028F8D14D4B98474D4B984740
S2140829A0484D83464FEA104A2860DFF858814A4C5B
S2140829B0B8F80000A04706460F46B8F80200DFF849
S2140829C048912338C847CDE904011FFA8BF0A04781
S2140829D0CDE900011FFA8AF0A047CDE9020130468A
S2140829E03946DDE904233D4FB8473D4EB047CDE9AB
S2140829F004012888A047CDE906016888A047CDE9E4
S214082A000801DFF8C4A0BAF80000A047CDE9000125
S214082A10BAF80200A047CDE90201DDE90601DDE9C2
S214082A200823B847B04706460F46B8F802102339B9
S214082A30B8F8000089B22A886B882A4CA0471FFA83
S214082A4080F8DDE9040132463B46274CA047044699
S214082A500D46264B98470028B8BF4042C847002274
S214082A60144B154EB04708B100240025ADF8308049
S214082A70CDE90E45114B18680CA905220023104C09
S214082A80A04718B10F4B1A680F4B1A600B4D0F4C26
S214082A9028680CA902220123A0470028F8D1144868
S214082AA00D21144B98471448144CA0471448A047C7
S214082AB0FEE700BF0000F03F6D46080058AD07204F
S214082AC03D0D0800B4AB0720A8AB0720ED0E0800A4
S214082AD06D050800ED0408009D400800E120080088
S214082AE04920080065200800213E0800BD46080069
S214082AF000000940C903080084780800A9470800B0
S214082B0098780800ACAB0720BD400800014B185C5D
S214082B10704700BF5C010720436913F0020F1DBF12
S214082B20C1F30801C161002001207047436913F012
S214082B30010F05D08369C3F308030B6000207047B4
S214082B400120704700B583B011480DF10701012236
S214082B50104B984772B6BFF35F8F00220E4B1A7061
S214082B600E4B1B789DF807100D4AD1549B2B03D1AA
S214082B7000220A4B1A7002E00133084A1370012239
S214082B80054B1A70BFF35F8F62B603B05DF804FB9F
S214082B9000800940B52D08009E01072054AC072088
S214082BA0B8AB0720F0B583B004460D460023019362
S214082BB01F4B984207D11F461E4E38462946B04737
S214082BC00028FAD119E01C4B984209D11F461B4E23
S214082BD0384601A9B0470028FAD1019B2B7019E0A6
S214082BE0174B984209D11E46144C304601A9A047F7
S214082BF00028FAD1019B2B7018E0124B9C4209D191
S214082C001E460E4C304601A9A0470028FAD1019B63
S214082C102B700BE00C4B9C4208D11E46074C3046E6
S214082C2001A9A0470028FAD1019B2B7003B0F0BD7C
S214082C3000080E40C12E0800008009402D2B080011
S214082C4000C0094000000A4000400A4070B50C4623
S214082C501E4B984208D11E461D4D30462146A847B1
S214082C600028FAD1012070BD1A4B984208D11E469A
S214082C70194D30462146A8470028FAD1012070BDD4
S214082C80164B984208D11E46134D30462146A84793
S214082C900028FAD1012070BD114B984208D11E4673
S214082CA00D4D30462146A8470028FAD1012070BDB0
S214082CB00C4B984208D11E46074D30462146A84779
S214082CC00028FAD1012070BD002070BD00080E4013
S214082CD0B12E080000800940192B080000C00940E2
S214082CE000000A4000400A4030B585B00820124D62
S214082CF0A847124C124B1C60124A134B1A60134A10
S214082D00134B1A60134B01934FF4E13302934FF4BD
S214082D10006303930820A847204601A90E4B98474E
S214082D200E4D2B68986800210D4CA0472B685868F4
S214082D300021A04705B030BD2534080000080E4025
S214082D4060AD07204D2C08005CAD0720A52B0800B9
S214082D5004AD072000BD0105792E0800D005072020
S214082D60594908000138022818D82DE9F0410E46BE
S214082D70144682B10D46DFF838800C4FD8F80000AC
S214082D8015F8011B3B68984700280ADBA81B013C7E
S214082D90F4D1BDE8F0810020BDE8F0814FF0FF30A7
S214082DA070474FF0FF30BDE8F08100BF5CAD0720EC
S214082DB060AD0720002A4ED02DE9F04F85B00646B4
S214082DC00D461746DFF8A4A0DFF8A490CDF800A0BB
S214082DD0DFF8A0B0214CCDF804B000230393564585
S214082DE005D100982946C8470028FAD115E05E455F
S214082DF007D1019803A9A0470028FAD1039B2B7096
S214082E0017E0174B9E4208D19846404603A9A047AC
S214082E100028FAD1039B2B7016E0124B9E4208D16D
S214082E209846404603A9A0470028FAD1039B2B7072
S214082E300AE00D4B9E4207D19846404603A9A04794
S214082E400028FAD1039B2B700135013FC5D100201D
S214082E5005B0BDE8F08F0020704700BF2D2B080096
S214082E6000C0094000000A4000400A4000080E4022
S214082E70C12E08000080094010B4AC2303600B681C
S214082E804A68B3FBF2F31B095C1E4FF6FE729442C7
S214082E900AD803628B68436040F20223C0F82031E8
S214082EA050230360002000E001205DF8044B7047C3
S214082EB0436913F0020F1ABFC16100200120704752
S214082EC0436913F0010F1DBF83690B7000200120B2
S214082ED0704700BF10B50E480E4B984700203E219D
S214082EE00D4B98470D4CA0470028FCD00C4B984734
S214082EF00C4A0D4B9A620D4CA0470028FCD01020B7
S214082F000B4B98470B4B98470148024B984710BD08
S214082F1000BD0105B1000720A1330800F5330800FD
S214082F2005340800013F0D2000060E401534080041
S214082F30393308002D35080010B54FF400421A4BF7
S214082F405A600B20194CA0470C20A0470D20A0471C
S214082F500E20A0473B204FF06051154CA047552047
S214082F604FF06051A04756204FF06051A0476820A8
S214082F701049A0475C201049A04710484FF44071FC
S214082F800F4A104B98472C204FF00061A0472D2081
S214082F904FF00061A0472B204FF00061A0472A2081
S214082FA04FF00061A04710BD501A0E4025340800A7
S214082FB0B93008007900002801000028000E0E40ED
S214082FC0010000088D31080021F00061B1F1405F72
S214082FD00CBF836BC36B134214BF012000207047DD
S214082FE04264B1F1805F16D004D8C1B1B1F1006F68
S214082FF00AD013E0B1F1405F11D0B1F1605F0ED096
S214083000B1F1205F0AD17047036F016F0B4023EAC6
S2140830100203036702E0036F1343036742607047C7
S214083020416412F0010F14BF4166016612F00A0FE0
S21408303014BF0162416212F0020F02D0C0F880107D
S21408304004E012F0080F18BFC0F884104161016050
S214083050704700BF10B44164019C0CB1416600E0A3
S21408306001660BB1016500E041650AB1016300E045
S2140830704163016101605DF8044B704712F0100F60
S21408308010D0C0F8B01012F0200F14BFC0F8D4103B
S214083090C0F8D01012F0400F14BFC0F8C010C0F827
S2140830A0C4107047C0F8B410704700BF016470477A
S2140830B0C06C7047806C704770B582B00D46430987
S2140830C003F5001303F207735C0201F0F043B3F153
S2140830D0205F30D006D8B3F1006F0AD0B3F1805F16
S2140830E018D049E0B3F1405F30D0B3F1605F2DD01F
S2140830F042E000F01F000126864020464FF000619F
S21408310032461F4B984715F0010F14BF66662666B1
S214083110012032E000F01F000126864020464FF0CE
S21408312080513246164B984715F0010F14BF666655
S2140831302666012021E000F01F030126204606FA35
S21408314003F12A460F4B9847304616E000F01F0357
S214083150012605F0605205EA06010091204606FAA7
S21408316003F1B2F1605F14BF00220122C5F38003A9
S214083170054CA047304600E0002002B070BD00BFF6
S214083180E12F0800213008005530080070B582B0DD
S21408319006460D46144602F0F043B3F1205F26D0EB
S2140831A006D8B3F1006F0AD0B3F1805F13D034E0CD
S2140831B0B3F1405F1FD0B3F1605F1CD02DE04FF035
S2140831C000612A46164B984714F0010F14BF75661F
S2140831D03566012022E04FF080512A46104B98476A
S2140831E014F0010F14BF75663566012016E00D4B06
S2140831F09847012012E004F0605204F0010300939F
S21408320030462946B2F1605F14BF00220122C4F39B
S2140832108003054CA047012000E0002002B070BDE6
S214083220E12F080021300800553008002DE9F0414C
S214083230044688460E4B9847054620460D4B984749
S214083240054013D00C4C04F160062368434508D1AA
S2140832506168294205D0E36840469847636825EACE
S2140832600305B44202D01034002DEED1BDE8F0813B
S214083270B1300800B53008005CAC0720F8B5174C2C
S2140832802768062F27D84FF0000C6446144E2501F1
S21408329006EB050E75598D4204D106EB04156D68CC
S2140832A0954204D00134E4B2A446A742EFD2CEF841
S2140832B00010CEF80420CEF808300699CEF80C1088
S2140832C00137674504BF05490F6011461A46054B86
S2140832D098470020F8BD0120F8BD00BF58AC07206D
S2140832E05CAC07207D30080008B502480B21024B6D
S2140832F0984708BD000E0E402D32080008B5024853
S2140833000C21024B984708BD00100E402D320800CD
S21408331008B502480D21024B984708BD00120E401A
S2140833202D32080008B502480E21024B984708BD02
S21408333000140E402D320800184A136B23F0700351
S21408334018431063936E13F0080F03D009E0013B8F
S21408335003D11EE04FF4006310498A6E12F0080F7E
S214083360F5D00E4A136B23F0030343F002031363EE
S214083370906E10F0080004D000207047013B03D17F
S21408338009E04FF4006305498A6E12F0080FF5D07D
S2140833907047012070470120704700BF00060E40A6
S2140833A038B111490B6A114A1A40114B13430B6284
S2140833B070470D4A136A23F45C1323F0030343F49F
S2140833C05C1343F00103090289B20B431362936E40
S2140833D013F0010FFBD0044A136A43F09B7343F4BF
S2140833E080331362704700BF00060E40FCFFC8FE1D
S2140833F002003701024B986E00F48030704700BF19
S21408340000060E404FF00052014B9A62704700BF0C
S21408341000060E40024B986E00F00200704700BF90
S21408342000060E402C281ED81F280CD8114B9A6967
S214083430012383401A40934217D0012383400D4A44
S2140834401361002070470B4BD3F80821203801235E
S21408345083401A4093420AD001238340054AC2F8A3
S2140834600031002070470120704700207047002078
S214083470704700BF00060E40FEE700BF08B51F4BAA
S2140834801F4A9A4203D01F4B1C4A9A4204D31E4B2B
S2140834901E4A9A4210D31BE018490A1D1C4B9B1A59
S2140834A023F003030433164A134452F8040B41F876
S2140834B0040B9A42F9D1EAE7164B174AD21A22F0B9
S2140834C003021A44043B002143F8041B9342FBD131
S2140834D0124B23F0604222F07F0211498A6003F102
S2140834E06043B3F5801F03D28B6843F000538B60AC
S2140834F00C4B98470C4B9847FEE700BF0000072088
S214083500A47908000C0A072068AD0720100A0720CF
S2140835100F0A0720140A07206BAD072000000800D2
S21408352000ED00E059470800993608003E4B1B6B33
S21408353003F00303032B5FD8DFE803F0020E2B2B00
S2140835403A4B5B6913F0800F14BF4FF400424FF4F8
S214083550FA42374B1A604FE0334B1B6A13F0807FF2
S21408356003D0344A324B1A6046E0334A304B1A606E
S2140835702D4B1B6A03F07003102B02D0202B04D0AF
S2140835803AE02E4A2A4B1A6036E02A4A284B1A6036
S21408359032E0254B1B6A13F0807F03D0254A244B64
S2140835A01A6012E0244A224B1A601F4B1B6A03F06B
S2140835B07003102B02D0202B04D006E01F4A1C4BA9
S2140835C01A6002E01B4A1A4B1A60174B1B6B03F073
S2140835D00303022B0DD1144A936A926A1448C3F364
S2140835E00A41036801FB0333D2B2B3FBF2F303606C
S2140835F002E0134A0E4B1A600B4B1B6B03F070036A
S214083600702B07D10A4A13680E49A1FB03135B08FF
S21408361013607047044B1A6B0549C2F302120B6815
S214083620D3400B60704700BF00060E40101A0E40CD
S214083630A0010720001BB70000093D0000127A0011
S214083640001C4E0EABAAAAAA094B1B6813B9094A56
S214083650074B1A60064B1B681A180749914204DB89
S2140836601046034A1060184670474FF0FF30704700
S214083670CCAC072068CD0720FC7F08204FF0FF3031
S214083680704700BF4FF400534B600020704700BFE0
S214083690012070470020704770B584B0554B984796
S2140836A0554B9847554B98470B20554CA0470C2030
S2140836B0A0470D20A0470E20A047524B9847524BD4
S2140836C09847524B98475248524B9847524B984700
S2140836D03520524DA84700F01F03012404FA03F3CF
S2140836E0400900F5001000F207704002036034201D
S2140836F0A84700F01F0304FA03F3400900F500107A
S21408370000F20770400203601E20A84700F01F035F
S21408371004FA03F3400900F5001000F207704002AF
S21408372003600520A84700F01F0304FA03F34009C6
S21408373000F5001000F20770400203603520A84725
S214083740430903F5001303F207735B0200F01F003A
S21408375004FA00F21A61C3F8A0203420A8474309E7
S21408376003F5001303F207735B0200F01F0004FA68
S21408377000F21A61C3F8A0200520A847430903F5FC
S214083780001303F207735B0200F01F0004FA00F24E
S2140837905A61C3F8A020224D28464FF000712246F1
S2140837A0204B98476B6E43F000736B6620461021DB
S2140837B000221D4B98471D4B1860022600960024D1
S2140837C00194029403941A481A494FF40072234647
S2140837D0194DA8470096019402940394174818496F
S2140837E04FF400722346A847164B9847204604B065
S2140837F070BD00BFD52E0800392F080051010800FB
S21408380025340800E92C0800A91F08008D1E0800AA
S2140838100000094069030800990208000D2B0800FB
S21408382000120E4021300800E50C080058AD0720AD
S21408383061230800BC780800ED100800ED24080095
S214083840C8780800F11208002DE9F84FBE4B21F0A1
S21408385000469E420D468A4604460FDDBB4B9E42F6
S21408386000F3B08000F0AB80B94BBA49BA4CBAF155
S214083870000FC8BF19462046BDE8F88FB74B9E42D2
S21408388000F3BA80A3F1DE739E4240F3A5804FF0A2
S214083890FF3B22462B462046294600F075FC02468A
S2140838A00B468046894600F06FFC8FA3D3E90023B9
S2140838B006460F4600F068FC8DA3D3E9002300F007
S2140838C0B1FA32463B4600F05FFC8BA3D3E90023EF
S2140838D000F0A8FA32463B4600F056FC88A3D3E927
S2140838E0002300F09FFA32463B4600F04DFC86A3C4
S2140838F0D3E9002300F096FA32463B4600F044FC33
S21408390083A3D3E9002300F08DFA42464B4600F025
S2140839103BFC81A3D3E900238046894630463946D6
S21408392000F032FC7EA3D3E9002300F079FA324691
S2140839303B4600F029FC7CA3D3E9002300F070FA8C
S21408394032463B4600F020FC79A3D3E9002300F07A
S21408395067FA32463B4600F017FC77A3D3E9002304
S21408396000F05EFA32463B4600F00EFCBBF1FF3F25
S21408397002460B4667D04046494600F053FA2246B0
S2140839802B4600F001FC764E764B4FEACB0B5E4496
S2140839909B44DBE9002300F043FA22462B4600F05E
S2140839A03FFA02460B46D6E9000100F039FABAF1AA
S2140839B0000F0446BFF65FAF01F100415BE7002841
S2140839C03FF452AF2246204629462B4600F02AFAF4
S2140839D004462046BDE8F88F59A3D3E9002300F033
S2140839E021FA0022604B00F05FFE00283FF44FAF3C
S2140839F029462046BDE8F88F00F0C0F85B4B044621
S214083A009E420D462FDCA3F550239E4254DC024608
S214083A100B4600F007FA0022534B00F001FA00228A
S214083A2006460F46204629464FF0804300F0FAF92E
S214083A3002460B463046394600F0D0FC4FF0000BE5
S214083A4004460D4625E74046494600F0EBF922466F
S214083A502B4600F099FB02460B462046294600F006
S214083A60DFF9044607E7424B9E421ADC0022414B28
S214083A7000F0D6F9002206460F46204629463D4B5A
S214083A8000F082FB0022384B00F0CCF902460B46C9
S214083A903046394600F0A2FC4FF0020B04460D46AD
S214083AA0F7E602460B460020334900F097FC4FF035
S214083AB0030B04460D46ECE600222B4B00F0B0F94B
S214083AC0002206460F4620462946274B00F0AAF94C
S214083AD002460B463046394600F080FC4FF0010B94
S214083AE004460D46D5E600BF11DA22E33AAD903F0C
S214083AF0EB0D76244B7BA93F513DD0A0660DB13F18
S214083B006E204CC5CD45B73FFF8300922449C23F7F
S214083B100D5555555555D53F2F6C6A2C44B4A2BF44
S214083B209AFDDE522DDEAD3F6D9A74AFF2B0B33F0C
S214083B30711623FEC671BC3FC4EB98999999C93F84
S214083B409C7500883CE4377EFFFF0F440000F07F3A
S214083B50FB21F93FFB21F9BF182D4454FFFFDB3F3B
S214083B60F8780800D87808000000F03FFFFFF23F1A
S214083B70FF7F03400000F83F0000F0BF21F000413F
S214083B80704700BF2DE9F0478AB006460F4600F09A
S214083B904FF8DFF898A004469AF900300D4601332E
S214083BA00FD03046394600F009F950B14FF00008FA
S214083BB04FF000093046394642464B4600F056FD5F
S214083BC020B9204629460AB0BDE8F08716499AF873
S214083BD0004001220023CDE90467CDE90267019180
S214083BE00092089364B9CDE90689684600F012F990
S214083BF080B1089B9BB9DDE906010AB0BDE8F087ED
S214083C004046494642464B4600F0E8FB022CCDE9C2
S214083C100601EAD100F09AFD21230360E9E700F0E7
S214083C2095FD089B0360E6E718790800A4010720BD
S214083C302DE9F041604E0C46B6460E4076450546E0
S214083C400B4600F098800029024676DD5FEA215E82
S214083C5000F08180AEF2FF3EC3F313031EF0010F9F
S214083C6043F480135ED100273C46D10F01EB430393
S214083C704FEA6E0E520016204FF4001165189D424A
S214083C804FEAD2764FEA420202DC5B1B6C180F44FE
S214083C90013806EB43034FEA5101EFD1844620264C
S214083CA04FF000410AE0A34220D0D50F013E4FEA6C
S214083CB0510105EB43034FEA420220D09C420CEB2D
S214083CC00105F0DA002D05EB010C09DBA0461B1BED
S214083CD0954288BF03F1FF334446521B0844E4E785
S214083CE0BCF1000FF2DB04F10108F0E7954217D8A3
S214083CF0002D05EB010C48DB98460023ECE7134340
S214083D0015D140087B1003F17F5303F50013FA071B
S214083D1003EB0E57394648BF40F00040BDE8F08137
S214083D201C46C2E7D10F01EB430352009BE7411C38
S214083D3031D000F001031844E3E721F000460643BB
S214083D40ECD079BB8E46D30AAEF1150E5205002B81
S214083D50F9D0DC0222D400215B00D80201F101016F
S214083D60FAD5C1F10100C1F1200422FA04F4234374
S214083D7086448A406EE702460B4600F005FA2A4655
S214083D80234600F04FF8BDE8F081BCF1000FAADA30
S214083D90A0460023A0E701373046B3E720240120D9
S214083DA00021E2E702460B4600F03AF802460B46C8
S214083DB000F014FBB2E700BF0000F07F10B431F04B
S214083DC0004408D0114BA1F580129A4208D8042066
S214083DD05DF8044B704718B902205DF8044B70472D
S214083DE001F1FF41094B01F5E0019942EFD9B4F51D
S214083DF0801F01D20320EBE7054B9C4201D0002030
S214083E00E6E7B0FA80F04009E2E700BFFFFFDF7F91
S214083E100000F07F0020704781F0004102E000BFFC
S214083E2083F0004330B54FEA41044FEA430594EA6D
S214083E30050F08BF90EA020F1FBF54EA000C55EAA8
S214083E40020C7FEA645C7FEA655C00F0E2804FEA79
S214083E505454D4EB5555B8BF6D420CDD2C4480EA5B
S214083E60020281EA030382EA000083EA010180EA8B
S214083E70020281EA0303362D88BF30BD11F0004FD9
S214083E804FEA01314FF4801C4CEA113102D040420F
S214083E9061EB410113F0004F4FEA03334CEA13334A
S214083EA002D0524263EB430394EA050F00F0A78062
S214083EB0A4F10104D5F1200E0DDB02FA0EFC22FA5D
S214083EC005F2801841F1000103FA0EF2801843FA51
S214083ED005F359410EE0A5F120050EF1200E012A42
S214083EE003FA0EFC28BF4CF0020C43FA05F3C01880
S214083EF051EBE37101F0004507D54FF0000EDCF1F9
S214083F00000C7EEB00006EEB0101B1F5801F1BD3A1
S214083F10B1F5001F0CD349085FEA30004FEA3C0CA5
S214083F2004F101044FEA445212F5800F80F09A809B
S214083F30BCF1004F08BF5FEA500C50F1000041EB9F
S214083F40045141EA050130BD5FEA4C0C404141EBA3
S214083F50010111F4801FA4F10104E9D191F0000FCA
S214083F6004BF01460020B1FA81F308BF2033A3F14D
S214083F700B03B3F120020CDA0C3208DD02F1140C44
S214083F80C2F10C0201FA0CF021FA02F10CE002F17F
S214083F901402D8BFC2F1200C01FA02F120FA0CFC78
S214083FA0DCBF41EA0C019040E41AA2BF01EB0451C1
S214083FB0294330BD6FEA04041F3C1CDA0C340EDCBF
S214083FC004F11404C4F1200220FA04F001FA02F302
S214083FD040EA030021FA04F345EA030130BDC4F1C0
S214083FE00C04C4F1200220FA02F001FA04F340EAB5
S214083FF00300294630BD21FA04F0294630BD94F066
S214084000000F83F4801306BF81F480110134013D4C
S2140840104EE77FEA645C18BF7FEA655C29D094EABD
S214084020050F08BF90EA020F05D054EA000C04BF3B
S2140840301946104630BD91EA030F1EBF0021002026
S21408404030BD5FEA545C05D14000494128BF41F0C5
S214084050004130BD14F580043CBF01F5801130BD29
S21408406001F0004545F0FE4141F470014FF00000B4
S21408407030BD7FEA645C1ABF194610467FEA655C65
S2140840801CBF0B46024650EA013406BF52EA033507
S21408409091EA030F41F4002130BD00BF90F0000FF5
S2140840A004BF0021704730B54FF4806404F1320431
S2140840B04FF000054FF0000150E700BF90F0000FEA
S2140840C004BF0021704730B54FF4806404F1320411
S2140840D010F0004548BF40424FF000013EE700BFE1
S2140840E042004FEAE2014FEA31014FEA02701FBF71
S2140840F012F07F4393F07F4F81F06051704792F043
S214084100000F14BF93F07F4F704730B54FF46074BC
S21408411001F0004521F0004120E700BF50EA010207
S21408412008BF704730B54FF000050AE050EA0102B4
S21408413008BF704730B511F0004502D5404261EB24
S21408414041014FF4806404F132045FEA915C3FF465
S214084150DCAE4FF003025FEADC0C18BF03325FEAFE
S214084160DC0C18BF033202EBDC02C2F1200300FAB3
S21408417003FC20FA02F001FA03FE40EA0E0021FAD8
S21408418002F11444C1E600BF70B54FF0FF0C4CF4C2
S214084190E06C1CEA11541DBF1CEA135594EA0C0F78
S2140841A095EA0C0F00F0DEF82C4481EA030621EAB3
S2140841B04C5123EA4C5350EA013518BF52EA0335EE
S2140841C041F4801143F4801338D0A0FB02CE4FF0A0
S2140841D00005E1FB02E506F00042E0FB03E54FF0D0
S2140841E00006E1FB03569CF0000F18BF4EF0010EC8
S2140841F0A4F1FF04B6F5007F64F5407404D25FEAC4
S2140842004E0E6D4146EB060642EAC62141EA555176
S2140842104FEAC52040EA5E504FEACE2EB4F1FD0CB8
S21408422088BFBCF5E06F1ED8BEF1004F08BF5FEA36
S214084230500E50F1000041EB045170BD06F00046E8
S21408424046EA010140EA020081EA0301B4EB5C0495
S214084250C2BFD4EB0C0541EA045170BD41F480118D
S2140842604FF0000E013C00F3AB8014F1360FDEBFB2
S214084270002001F0004170BDC4F10004203C35DA8E
S2140842800C341BDC04F11404C4F1200500FA05F311
S21408429020FA04F001FA05F240EA020001F00042B2
S2140842A021F0004110EBD37021FA04F642EB060128
S2140842B05EEA430E08BF20EAD37070BDC4F10C0452
S2140842C0C4F1200500FA04F320FA05F001FA04F216
S2140842D040EA020001F0004110EBD37041F1000102
S2140842E05EEA430E08BF20EAD37070BDC4F120050D
S2140842F000FA05F24EEA020E20FA04F301FA05F275
S21408430043EA020321FA04F001F0004121FA04F21C
S21408431020EA020000EBD3705EEA430E08BF20EAEC
S214084320D37070BD94F0000F0FD101F00046400026
S21408433041EB010111F4801F08BF013CF7D041EAA8
S214084340060195F0000F18BF704703F000465200AC
S21408435043EB030313F4801F08BF013DF7D043EA7D
S2140843600603704794EA0C0F0CEA135518BF95EA33
S2140843700C0F0CD050EA410618BF52EA4306D1D1BA
S21408438081EA030101F000414FF0000070BD50EAD9
S214084390410606BF1046194652EA430619D094EA63
S2140843A00C0F02D150EA013613D195EA0C0F05D14D
S2140843B052EA03361CBF104619460AD181EA0301A1
S2140843C001F0004141F0FE4141F470014FF0000059
S2140843D070BD41F0FE4141F4780170BD70B54FF0F4
S2140843E0FF0C4CF4E06C1CEA11541DBF1CEA135574
S2140843F094EA0C0F95EA0C0F00F0A7F8A4EB050456
S21408440081EA030E52EA03354FEA013100F088804C
S2140844104FEA03334FF0805545EA131343EA126315
S2140844204FEA022245EA111545EA10654FEA0026CA
S2140844300EF000419D4208BF964244F1FD0404F583
S214084440407402D25B084FEA3202B61A65EB0305DF
S2140844505B084FEA32024FF480104FF4002CB6EB9C
S214084460020E75EB030E22BFB61A754640EA0C001C
S2140844705B084FEA3202B6EB020E75EB030E22BF5C
S214084480B61A754640EA5C005B084FEA3202B6EB9D
S214084490020E75EB030E22BFB61A754640EA9C005C
S2140844A05B084FEA3202B6EB020E75EB030E22BF2C
S2140844B0B61A754640EADC0055EA060E18D04FEAEA
S2140844C0051545EA16754FEA06164FEAC30343EA8A
S2140844D052734FEAC2025FEA1C1CC0D111F4801F57
S2140844E00BD141EA00014FF000004FF0004CB6E750
S2140844F011F4801F04BF01430020B4F1FD0C88BFEF
S214084500BCF5E06F3FF6AFAEB5EB030C04BFB6EBF9
S214084510020C5FEA500C50F1000041EB045170BDEC
S2140845200EF0004E4EEA113114EB5C04C2BFD4EB19
S2140845300C0541EA045170BD41F480114FF0000E9D
S214084540013C90E645EA060E8DE60CEA135594EA19
S2140845500C0F08BF95EA0C0F3FF43BAF94EA0C0F1C
S2140845600AD150EA01347FF434AF95EA0C0F7FF491
S21408457025AF104619462CE795EA0C0F06D152EAE5
S21408458003353FF4FDAE1046194622E750EA4106C9
S21408459018BF52EA43067FF4C5AE50EA41047FF4DA
S2140845A00DAF52EA43057FF4EBAE12E74FF0FF3C3F
S2140845B006E000BF4FF0010C02E000BF4FF0010C10
S2140845C04DF804CD4FEA410C7FEA6C5C4FEA430C89
S2140845D018BF7FEA6C5C1BD001B050EA410C0CBFD8
S2140845E052EA430C91EA030F02BF90EA020F00203A
S2140845F0704710F1000F91EA030F58BF994208BFA1
S21408460090422CBFD8176FEAE37040F0010070475D
S2140846104FEA410C7FEA6C5C02D150EA013C07D1B4
S2140846204FEA430C7FEA6C5CD6D152EA033CD3D0FF
S2140846305DF8040B704700BF8446104662468C46F9
S2140846401946634600E000BF01B5FFF7B7FF00282C
S21408465048BF10F1000F01BD4DF808EDFFF7F4FF55
S2140846600CBF012000205DF808FB00BF4DF808EDE0
S214084670FFF7EAFF34BF012000205DF808FB00BF03
S2140846804DF808EDFFF7E0FF94BF012000205DF825
S21408469008FB00BF4DF808EDFFF7CEFF94BF0120DA
S2140846A000205DF808FB00BF4DF808EDFFF7C4FFD3
S2140846B034BF012000205DF808FB00BF4FEA410226
S2140846C012F5001215D211D56FF47873B3EB625257
S2140846D012D94FEAC12343F0004343EA505311F07E
S2140846E0004F23FA02F018BF404270474FF0000010
S2140846F0704750EA013005D111F0004008BF6FF04E
S214084700004070474FF00000704700BF4A0011D2C3
S21408471012F5001211D20DD56FF47873B3EB62520E
S2140847200ED44FEAC12343F0004343EA505323FA1A
S21408473002F070474FF00000704750EA013002D18F
S2140847404FF0FF3070474FF000007047014B186875
S214084750704700BFD005072070B50F4E0F4D761B6B
S214084760B61018BF002405D0013455F8043B984706
S214084770A642F9D10A4E0B4D03F0FEF8761BB6108A
S21408478018BF002406D0013455F8043B9847A642C3
S214084790F9D170BD70BD00BF84790800847908001F
S2140847A08C790800847908000FB410B5074B82B0DE
S2140847B004AC54F8042B186823468168019400F06A
S2140847C0EDF902B0BDE8104004B07047D0050720E8
S2140847D0844641EA000313F0030349D1403A23D341
S2140847E00B6803604B6843608B688360CB68C36064
S2140847F00B6903614B6943618B698361CB69C3614C
S2140848000B6A03624B6A43628B6A8362CB6AC36233
S2140848100B6B03634B6B43638B6B8363CB6BC3631B
S21408482040304031403ADBD230320BD30B6803605D
S2140848304B6843608B688360CB68C3601030103168
S214084840103AF3D20C3205D351F8043B40F8043B37
S214084850043AF9D2043208D0D2071CBF11F8013B3B
S21408486000F8013B01D30B8803806046704700BF01
S214084870082A13D38B07B1D010F00303AED0C3F1C8
S2140848800403D21ADB071CBF11F8013B00F8013BF2
S214084890A4D331F8023B20F8023B9FE7043AD9D369
S2140848A0013A11F8013B00F8013BF9D20B78037086
S2140848B04B7843708B7883706046704770B4840773
S2140848C046D0541E002A41D0CDB2034602E0621EEE
S2140848D0E4B3144603F8015B9A07F8D1032C2ED9E3
S2140848E0CDB245EA05250F2C45EA054519D92646D1
S2140848F003F11002103E0F2E42F8105C42F80C5CD2
S21408490042F8085C42F8045C02F11002F2D8A4F1FE
S214084910100222F00F0204F00F041032032C134486
S2140849200DD91E462246043A032A46F8045BFAD8EE
S214084930221F22F003020432134404F003042CB1AD
S214084940C9B21C4403F8011BA342FBD170BC7047D4
S21408495014460346C2E700BF00290CBF0222002205
S2140849604FF4806300F000B82DE9F0413A4D044654
S2140849702E6890460D461F4616B1B36B002B3CD0EA
S214084980B8F1020F2FD8002F2DDB2146304601F054
S21408499061F8A18900236360A3610B0627D421F080
S2140849A0830189B2B8F1020FA1812AD0002D36D032
S2140849B0B8F1010F11D089B201F00800274B80B278
S2140849C0F36325602561676178B111F0030F18BF9E
S2140849D000270020A760BDE8F08141F001017B4276
S2140849E0A181A361E7E74FF0FF30BDE8F0812169B8
S2140849F0304601F09BF9A189D1E7304601F0BEF8B0
S214084A00BEE7002004F1430341F00201002501221D
S214084A10A181A560236023616261BDE8F081002F53
S214084A2008BF4FF48067384601F08AFC054628B16F
S214084A30A18941F0800189B2A181B9E74FF480606D
S214084A4001F07EFC054618B9A1894FF0FF30D9E77A
S214084A504FF48067ECE700BFD0050720815A0800AE
S214084A6020F0030110F00300C0F1000051F8043BE9
S214084A7000F1040C4FEACC0C6FF000021CBF22FABF
S214084A800CF213434FF0010C4CEA0C2C4CEA0C4C7D
S214084A90A3EB0C0222EA030212EACC1204BF51F876
S214084AA0043B0430F4D0C2F1000102EA0102B2FA73
S214084AB082F2C2F11F0200EBD200704740EA0103FF
S214084AC09B0770B42BD1032A29D90C4603462146E6
S214084AD054F8046BA6F1013525EA060515F0803F63
S214084AE005D1043A032A43F8046B2146EFD8A2B14D
S214084AF00C78013A1C70013101333CB16AB111F8E7
S214084B00014B013A03F8014B002CF7D12AB11A449D
S214084B10002103F8011B9342FBD170BC7047034683
S214084B20E5E700BF4B6E2DE9F0479C040F4692461A
S214084B302BD59368126833B3804602F1080919E941
S214084B406000B60817D0043D002401E0A64210D045
S214084B50404655F8041F3A4601F088F8431C04F10D
S214084B600104F3D10023CAF80830CAF80430BDE8B7
S214084B70F087DAF80830A3EB8603CAF8083009F19C
S214084B800809002BDBD10020ECE701F0A7F9002389
S214084B90CAF80830CAF80430BDE8F0872DE9F04FA7
S214084BA0ABB01C46009193460493019018B1836BF2
S214084BB0002B00F0E380009B99898AB2900408D401
S214084BC018465B6E41F4005223F400538281436614
S214084BD092B2110740F1B280009B1B69002B00F0CF
S214084BE0AD8002F01A020A2A00F0B4800DF1680AB5
S214084BF054460023099302930F930E93CDF834A0DE
S214084C009BF80030002B00F0A384252B00F0A0842E
S214084C105A4601E0252B03D012F8013F002BF9D1A4
S214084C20CBEB0206154696B10E9B0F9A013332441B
S214084C30072BC4F800B066600F920E9379DD002A41
S214084C4040F0AD845446029B0E92334402932B7870
S214084C50002B00F05F834FF0000300214FF0FF3C6D
S214084C608DF82F30681C6B7888460D46664600F12E
S214084C70010BA3F12002582A00F2AA82DFE812F0FC
S214084C809A02A802A802A202A802A802A802A802DB
S214084C90A802A80254026002A8020D016C02A8022B
S214084CA029012F012F012F012F012F012F012F017D
S214084CB02F012F01A802A802A802A802A802A8028B
S214084CC0A802A802A802A8023D01A802A802A802F3
S214084CD0A802A802A802A802A802A802A8027401AC
S214084CE0A802A802A802A802A8028B01A802A80285
S214084CF0A301A802A802A802A802A802A802A8025D
S214084D00A802A802A802C701DA01A802A802A802F7
S214084D102301DA01A802A8024B02A802880213019E
S214084D20F4010702A8020D02A8028100A802A80240
S214084D3032020834029B3344029388E701980099AC
S214084D4000F072FDA8B9009B9A8902F01A020A2A96
S214084D507FF44CAF009BB3F90E30002BFFF646AF3E
S214084D60019800995A46234600F020FD2BB0BDE86E
S214084D70F08F4FF0FF302BB0BDE8F08F00F0FEFE4E
S214084D8019E718F0200F0395B44600F00C81049B31
S214084D90073323F0070303F10802D3E900670492F8
S214084DA001234FF00002E1468DF82F200025BCF1C4
S214084DB0000FA8BF28F0800856EA070240F0C48013
S214084DC0BCF1000F00F08083012B00F0C580022B99
S214084DD000F086835146F20842EA4772F80806F061
S214084DE0070307461646303356EA070201F8013D20
S214084DF0F1D118F0010F079140F0FA83C1EB0A09C8
S214084E00E1454E46B8BF664605B1013618F00203BE
S214084E10059318BF023618F08403069340F0F9810C
S214084E20039B9D1B002D40F3F481102D40F38A84CC
S214084E302046DDF838E064460F9AC44F10237146C2
S214084E40844607E001F1020E01460CF1080C103DFD
S214084E50102D13DD481C103207280F92CCF800706E
S214084E60CCF804300E90EDDD002A40F0C281103DEB
S214084E70102D11464FF0010ED446EBDC6346714602
S214084E80A4461C462A4407290F92276065600E919F
S214084E9000F346830834481CBEE1584648F0040828
S214084EA09BF80030E3E618F020030395B44662D07A
S214084EB0049B073323F0070303F10802D3E90067CE
S214084EC0049200236DE748F040089BF800305846E7
S214084ED0CDE648F080089BF800305846C7E6A3F1B0
S214084EE0300200251BF8013B05EB850502EB45055E
S214084EF0A3F13002092AF5D9BBE648F0100818F0E5
S214084F00200F0395B4468DF82F1000F09B80049967
S214084F10073121F00701D1E9002316461F4608315C
S214084F200491002A73F10003C0F2A483BCF1000FB9
S214084F30A8BF28F0800856EA07029DF82F50E146D9
S214084F404FF001033FF43CAF012B7FF440AF002F36
S214084F5008BF0A2E80F032832AAB303603F8416D3C
S214084F60C3EB0A0907934BE748F0100818F020032C
S214084F700395B4469CD118F0100240F0F78218F05A
S214084F80400300F0F382049913460A4604320E885A
S214084F900027049205E748F0100818F0200F03953C
S214084FA0B4467FF4F4AE049A18F0100F134640F097
S214084FB0E48218F0400F00F0E082168804320027DA
S214084FC001230492EDE6624A18F0200F0395B446D2
S214084FD08DF82F10099200F08F80049A073222F07D
S214084FE0070202F108010491D2E9006718F0010FE0
S214084FF000F08F8256EA070200F08B8230228DF886
S214085000313048F002088DF830200223C9E6049AA9
S214085010012613684FF000018DF840301346B1465C
S2140850200433049310AB03958DF82F1007934FF0B5
S214085030000CEBE618F0200F0395B4468DF82F10F9
S2140850407FF465AF049A18F0100F134640F0A0825C
S21408505018F0400F00F09C82B2F900600433F7178E
S214085060049332463B465CE7049978238DF8313042
S214085070384BB44630220E6804310993039548F03D
S2140850800208049100278DF83020022389E648F0AC
S21408509020089BF800305846E9E54FF00001049ACE
S2140850A003951368B44607938DF82F10151D002B2B
S2140850B000F04E83002EC0F22983079E62463046D3
S2140850C00021CDF810C001F0C9FBDDF810C000289B
S2140850D000F04E830495C6EB00099DF82F504FF05C
S2140850E0000C8DE61B4A18F0200F0395B44609926B
S2140850F08DF82F107FF471AF049918F0100F0A4638
S21408510040F0418218F0400F00F03D8204320E88CD
S214085110002704926AE79BF800306C2B00F0E982BF
S21408512048F010085846A2E5049A13461568043352
S214085130002DC0F2E68204939BF80030584696E5A8
S2140851409BF8003058462B2191E500BF6879080087
S214085150387908004C7908009BF800300BF10100FC
S2140851602A2B00F00F83A3F13002092A83464FF05A
S21408517000063FF67EAD1BF8013B06EB860602EB03
S2140851804606A3F13002092AF5D946EAE67670E51E
S21408519018F0200F8DF82F1000F08382049A13461B
S2140851A004330493029B1168DF171A463B46C1E98D
S2140851B0002325E558469BF8003000297FF457ADB4
S2140851C0202154E548F0010858469BF800304EE583
S2140851D003958DF82F10002B00F09C808DF840303A
S2140851E04FF0000301268DF82F3010ABB146079319
S2140851F01DE7019800990DAA0893FFF793FC00286D
S21408520040F08F800E99D4460F9A01F1010E089B44
S2140852101DE60E990F9A481C9DF82F306BB1013287
S2140852200DF12F03012107280F920E90236061606D
S21408523000F33481014608340130059B63B102321D
S2140852400CA9022307280F920E9084E80A0000F3A0
S2140852503481014608340130069B802B00F0D48048
S214085260C9EB0C07002F2BDD102FAB4D1FDDA64614
S2140852701023019C07E001F1020C01460EF1080E0E
S214085280103F102F11DD481C103207280F92CEF859
S2140852900050CEF804300E90EDDD6ABB103F102F9C
S2140852A04FF0010C1146D646EDDC744660463A448B
S2140852B007280F9284E8A0000E903BDC08340130E3
S2140852C002EB0903079A07280F9384E804020E9056
S2140852D03DDD002B40F03F8118F0040F0E9340F0A0
S2140852E03081029B039A9642ACBF9B199B18029387
S2140852F000230E93544683E4204600990DAA05938E
S214085300FFF710FC68B90E99D6460F9A01F1010C02
S214085310059BB5E70F9B23B1019800990DAAFFF7E7
S21408532001FC009B9B895B063FF523AD02982BB0DA
S214085330BDE8F08F002A40F090814B465446079906
S2140853400122CDF86C90CDF83C901A910E9204F19B
S214085350080218F0040F39D003998D1B002D35DD8F
S214085360102D40F300820E986C4F1024DDF8048050
S214085370DDF8009006E000F1020E08460832103DFF
S214085380102D10DD411C103307290F931760546049
S2140853900E91F0DD002B2AD1103D102D4FF0010E96
S2140853A018465246EEDC2B44BEF1070F0F931760E3
S2140853B05560CDF838E009DD002B92D001980099A9
S2140853C00DAAFFF7AFFB0028ABD10F9B029A0399F3
S2140853D08E42ACBF921952180292002B88D00198C0
S2140853E000990DAAFFF79EFB002881D099E7404652
S2140853F049460DAAFFF796FB002892D10E9852460A
S2140854000F9B00F1010EBAE7039B9F1B002F7FF747
S21408541027AF102F40F3B38120463F4D6446102334
S214085420844607E001F1020E01460CF1080C103F15
S214085430102F11DD481C103207280F92CCF80050A8
S214085440CCF804300E90EDDDC2B9103F102F4FF0A7
S214085450010E1146D446EDDC6346A4461C463A4483
S214085460BEF1070F0F9284E8A000CDF838E000F3ED
S214085470EE8008340EF101007146F1E601980099B5
S2140854800DAA0593FFF74EFB00287FF44AAF0E9946
S214085490D4460F9A01F1010E059BC8E7002A40F092
S2140854A0C580059B002B00F085800CAA02231A9263
S2140854B008461B931A465446CBE6002A40F0A580B9
S2140854C0012011465446C7E603BB18F0010F1DD04D
S2140854D02AAB302203F8412DC3EB0A0907938FE461
S2140854E0D1460998330943EA0773390906F00F02CB
S2140854F00F461E46835C09F8013D56EA0703F1D1BC
S2140855004B46CDF81C90C3EB0A0979E4CDF81CA0ED
S21408551076E4022345E400BF287908006879080085
S214085520002A40F0D5809DF82F30002B00F0AC8084
S21408553001230DF12F0118461B931A461A9154465B
S21408554078E6039A951B002D52463FF709AFC8E642
S2140855505D46FFF77CBB019800990DAAFFF7E2FAB3
S21408556000287FF4DEAE52460F9BF2E60499002729
S2140855700A4604320E68049213E404321E680027B2
S214085580012304920DE416680432049200272DE5E0
S2140855901E680433F717049332463B46C1E4019865
S2140855A000990DAAFFF7BEFA00287FF4BAAE544653
S2140855B0FFF7C0BB0846544611464DE6D146CDF81F
S2140855C014C0304639460A22002301F0D1FD303295
S2140855D03046394609F8012D00230A2201F0C8FD95
S2140855E006460F4656EA0703EBD1DDF814C087E7F0
S2140855F0302B079B87D0013B1A4607933023C2EB14
S2140856000A0901F8013CFFF7FBBB019800990DAAAF
S214085610CDF814C0FFF786FA00287FF482AE0E99FC
S21408562054460F9A481CDDF814C015E601980099F0
S2140856300DAACDF820C0FFF775FA00287FF471AEE2
S2140856400E9954460F9A481CDDF820C0F5E5002A46
S21408565067D101201146544602E6019800990DAA22
S214085660FFF760FA00287FF45CAE0E9854460F9A4F
S214085670013025E62D25764267EB47078DF82F5033
S214085680E1460123FFF793BB059B114601205446CC
S214085690002B3FF4E5AD0CAA02238AE80C001A4654
S2140856A0D7E518F0100F0BD118F0400F08D0049A61
S2140856B0136804320492BDF808201A80FFF7A0BACF
S2140856C0049A136804320492029A1A60FFF798BA8A
S2140856D0019800990DAACDF820C0FFF723FA0028F4
S2140856E07FF41FAE0E9954460F9A481CDDF820C06A
S2140856F092E548F020080BF101009BF80130FFF70F
S214085700B6BA6D4204935846FFF7C8BB0798049587
S214085710FFF7A6F99DF82F5081464FF0000CFFF7CB
S2140857206FBB019800990DAACDF814C0FFF7FAF9D7
S21408573000287FF4F6AD0E9954460F9A481CDDF8FB
S21408574014C08DE50E990F9A0131154FFFF79ABBD5
S214085750062E144B28BF4FF0060CE14604952CEA9B
S214085760EC76079363E40E990D4F01F1010E1AE6E5
S214085770E146049584469DF82F50FFF741BB8646C0
S214085780094D6CE6049A9BF8013016680432002E20
S2140857900492BFF66CAA4FF0FF36FFF768BA00BF50
S2140857A06879080060790800287908002DE9F0452E
S2140857B088464F6EADF26C4D1997D8F81C70B1F844
S2140857C00CE0B1F80EA00797D8F824701AAC4FF47E
S2140857D080652EF0020E0026694600940494029511
S2140857E00595ADF80CE0ADF80EA0099706960546A7
S2140857F0FFF7D4F9041E07DB2846694600F02AF9A5
S214085800B04218BF4FF0FF34BDF80C305B0605D524
S214085810B8F80C3043F04003A8F80C3020460DF2D8
S2140858206C4DBDE8F08500BF38B52F4B05461868A7
S2140858300C4610B1836B002B36D0A28993B218079A
S2140858400CD52069A8B113F001021ED063690022A6
S2140858505B42A361A260F0B1002038BDD9063AD5F4
S214085860580724D4206942F00803A3819BB2002875
S214085870E9D103F42072B2F5007FE4D02846214629
S21408588000F0EEFCA3892069DDE7990758BF626936
S214085890A2600028E0D1A3891A06DED543F04003AB
S2140858A0A3814FF0FF3038BD00F068F9C5E7216BDB
S2140858B049B104F14003994203D0284600F036FA6D
S2140858C0A28900232363206922F02402002392B2CF
